:060000000A128A110C280F
:10000800FE00030EF0000A08F1000A128A110D2AF8
:100018000A128A110F2883120313A801A901AA0141
:1000280083010A128A111A29F4007C288316031303
:100038000514831603170814B028831603138514B0
:10004800831603178814B02883160313051583161F
:1000580003170815B028831603138515831603178D
:100068008815B028831603138516831603170816F8
:10007800B028831603130914831603178816B028AB
:10008800831603138914831603170817B0288316D9
:1000980003130915831603178817B028831603134B
:1000A8000615831603170914B0288316031386153B
:1000B800831603178914B02883160313861483162E
:1000C80003170915B028831603130616831603179A
:1000D8008915B02883160313061483160317091607
:1000E800B028831603138616831603178916B028BB
:1000F8007408F200F3017308003A03198428B02841
:100108007208003A03191A28013A03192128033AF8
:1001180003192828013A03192F28073A0319362802
:10012800013A03193D28033A03194428013A0319EF
:100138004B280F3A03195228013A03195928033A50
:1001480003196028013A03196728073A03196E282A
:10015800013A03197528B028080083120313A20175
:10016800F91FB728B828BF28F809F909F80A0319A8
:10017800F90AA201A20AFB1FC228C328CC28FA093F
:10018800FB09FA0A0319FB0A0130A0002008A2069D
:10019800A301A401780879040319D328D4280B29CA
:1001A800A101A10AE22801300310F80DF90DFF3E64
:1001B800031DD8280130A0002008A107F91FE52851
:1001C800E628D72801300310A30DA40DFF3E031D18
:1001D800E72879087B02031DF32878087A02031CB4
:1001E800F628F728FE287808FA027908031CFB038A
:1001F800FB02231401300310F90CF80CFF3E031D19
:10020800FF280130A102031D0A290B29E62822082C
:1002180003190F2910291529A309A409A30A0319E9
:10022800A40A2408F9002308F80008000A128A1111
:1002380074210A128A1183120313290888009F184F
:10024800262927293329203083120313A500A50B5B
:100258002B2900000A128A1165220A128A1100301D
:10026800F8000130F900831203132A08F300290863
:10027800F2007D30F4000030F5000A128A11E821FE
:100288000A128A117308FB007208FA000A128A110E
:10029800B1200A128A11790883120313A70078087B
:1002A800A6002608A5002508A8001C302802031C63
:1002B8005E295F2963290710871007151F29183041
:1002C8002802031C682969296D290710871407115A
:1002D8001F290710871007151F290A128A110C28D1
:1002E8008316031788018901831603138501870183
:1002F8008801831203138501870188010D300A12D2
:100308008A1118200A128A11F201F20A04300A121C
:100318008A1146220A128A11F201F3010D30F800FF
:100328007808F400F501F50A00300A128A11B421A0
:100338000A128A110A128A112F220A128A118B179D
:100348000B170A128A115E220A128A110A128A11DE
:1003580057220A128A1183120313A901AA0108005D
:10036800F7007708F600F60EF60DF60D8312031364
:100378001F0876063F3976069F00720C8316031312
:10038800031C1F1203181F16730C031C9F1203185B
:100398009F167408F600F60DF60D831203131F0856
:1003A8007606C33976069F002130F600F60BDA2967
:1003B800750C83160313031C9F1303189F178312CE
:1003C80003131F140C130800F601F701721CED2922
:1003D800EE29F4297408F6070318F70A7508F707D1
:1003E80001300310F40DF50DFF3E031DF529013012
:1003F8000310F30CF20CFF3E031DFC297208730472
:10040800031D072A082AEA297708F3007608F2006C
:100418000800831203130C1F122A132A1C2A1E0811
:10042800AA00831603131E0883120313A9000C13D2
:100438008C1D1F2A202A282A8316031314108312BE
:100448000313280893008C1171088A00700E83002A
:10045800FE0E7E0E090083120313941214128316E3
:1004680003131413831203131408F0390438940087
:10047800831603130716871287158516831203132D
:1004880094160800F400720C83160313031C0F1053
:1004980003180F147408F300F30E0F0873068F394E
:1004A80073068F000800831603138C158312031339
:1004B8008C110800831603130C17831203130C13F3
:0A04C8000800831203139F140800BC
:04400E00D420FF3F7C
:00000001FF
