:060000000A128A110C280F
:10000800FE00030EF1000A08F2000A128A111D29E7
:100018000A128A110F28FA0183010A128A113D294E
:10002800F50078288316031305148316031708149C
:10003800AC28831603138514831603178814AC2879
:10004800831603130515831603170815AC288316A2
:1000580003138515831603178815AC288316031315
:100068008516831603170816AC288316031309147C
:10007800831603178816AC2883160313891483166E
:1000880003170817AC2883160313091583160317DB
:100098008817AC288316031306158316031709144B
:1000A800AC28831603138615831603178914AC2806
:1000B800831603138614831603170915AC288316B1
:1000C80003130616831603178915AC288316031322
:1000D8000614831603170916AC288316031386160D
:1000E800831603178916AC287508F300F401740801
:1000F800003A03198028AC287308003A0319162817
:10010800013A03191D28033A03192428013A03194F
:100118002B28073A03193228013A03193928033AD8
:1001280003194028013A031947280F3A03194E28A2
:10013800013A03195528033A03195C28013A0319AF
:100148006328073A03196A28013A03197128AC2869
:100158000800831603178801890183160313850194
:1001680087018801831203138501870188010D30F7
:100178000A128A1114200A128A11F301F30A0430B0
:100188000A128A1171210A128A11F301F4010D3041
:10019800F9007908F500F60100300A128A11E92001
:1001A8000A128A110A128A115A210A128A118B1705
:1001B8000B170A128A1189210A128A110A128A1146
:1001C80082210A128A11FA010800F8007808F7005B
:1001D800F70EF70DF70D831203131F0877063F3943
:1001E80077069F00730C83160313031C1F12031852
:1001F8001F16740C031C9F1203189F167508F7002E
:10020800F70DF70D831203131F087706C339770616
:100218009F002130F700F70B0F29760C8316031384
:10022800031C9F1303189F17831203131F140C1327
:100238000800831203130C1F2229232928291E08CA
:10024800F0007008FA000C138C1D2B292C29362974
:100258008316031314107A088312031393007A0881
:1002680088008C1172088A00710E8300FE0E7E0EC3
:1002780009000A128A11AD200A128A117A0883121B
:10028800031388009F1849294A29422920308312DC
:100298000313A000A00B4E2900000A128A11902116
:1002A8000A128A1142290A128A110C28831203138E
:1002B80094121412831603131413831203131408CD
:1002C800F03904389400831603130716871287152C
:1002D80085168312031394160800F500730C831611
:1002E8000313031C0F1003180F147508F400F40E01
:1002F8000F0874068F3974068F00080083160313DD
:100308008C15831203138C110800831603130C1722
:10031800831203130C130800831203139F1408009D
:04400E00D420FF3F7C
:00000001FF
