:060000000A128A110C280F
:10000800FE00030EF5000A08F6000A128A11F22D06
:100018000A128A110F2883134B3084006B300A129E
:100028008A1198260A128A1183010A128A111C2839
:100038000A128A11B9230A128A110A128A118B220A
:100048000A128A11013083120313A4008030A5001C
:100058000A128A116A240A128A1101300A128A11B4
:100068009E240A128A11C3300A128A11AE260A1275
:100078008A11843083120313B900B90B4128000098
:100088006A300A128A114A260A128A1102300A12A2
:100098008A119E240A128A11C3300A128A11AE26C6
:1000A8000A128A11843083120313B900B90B5A2833
:1000B800000069300A128A114A260A128A1103308E
:1000C8000A128A119E240A128A11C3300A128A114E
:1000D800AE260A128A11843083120313B900B90BB1
:1000E8007328000068300A128A114A260A128A11F7
:1000F800333083120313A6000030A7006A08B90042
:10010800BA013908A0003A08A1006430A200003002
:10011800A3000A128A11C6240A128A118312031331
:100128002108A9002008A8000A128A11F5220A123B
:100138008A11831203132708E4002608E3006408E1
:10014800B0006308AF006530B9003908B100663007
:10015800BA003A08B2006730BB003B08B3000A1285
:100168008A110A220A128A11831203136908B90034
:10017800BA013908AF003A08B0006030BB003B084C
:10018800B1006130BC003C08B2006230BD003D08DF
:10019800B3000A128A110A220A128A11831203135F
:1001A8006808B900BA013908AF003A08B0005B30F6
:1001B800BB003B08B1005C30BC003C08B2005D30BD
:1001C800BD003D08B3000A128A110A220A128A11D8
:1001D8003E3084000530FF0083138001840AFF0B42
:1001E800F028831203136508303EB9003908BE00B1
:1001F8002E30B9003908BF006608303EB90039080A
:10020800C0006708303EB9003908C100C20100309B
:10021800C6000030C5000030C4000030C3006008CC
:10022800303EB9003908C3006108303EB9003908CA
:10023800C4006208303EB9003908C500C601003064
:10024800CA000030C9000030C8000030C7005B0891
:10025800303EB9003908C7005C08303EB90039089B
:10026800C8005D08303EB9003908C900CA014030ED
:100278000A128A1121260A128A113E3083120313A8
:10028800A4000030A5000A128A116A240A128A11F1
:1002980076300A128A1136260A128A1120300A127A
:1002A8008A1136260A128A11433083120313A400D6
:1002B8000030A5000A128A116A240A128A11103025
:1002C80083120313A4008030A5000A128A116A243D
:1002D8000A128A11473083120313A4000030A500C4
:1002E8000A128A116A240A128A1143300A128A11E0
:1002F80036260A128A11831203135808031985290E
:10030800862931280130A4008030A5000A128A11FC
:1003180036240A128A110D300A128A118A260A1204
:100328008A113E3083120313A4000030A5000A127C
:100338008A1136240A128A1176300A128A118A26FC
:100348000A128A1120300A128A118A260A128A1180
:10035800433083120313A4000030A5000A128A1147
:1003680036240A128A11103083120313A400803035
:10037800A5000A128A1136240A128A1147308312FC
:100388000313A4000030A5000A128A1136240A12A9
:100398008A1143300A128A118A260A128A110D30EC
:1003A8000A128A118A260A128A110D300A128A1133
:1003B8008A260A128A118312031365080A128A11FF
:1003C8006C260A128A118312031366080A128A110C
:1003D8006C260A128A118312031367080A128A11FB
:1003E8006C260A128A110D300A128A118A260A12FC
:1003F8008A110D300A128A118A260A128A1183126A
:100408000313D80131280A128A110C286430831288
:100418000313A0000030A1003008A3002F08A20099
:100428000A128A115E230A128A1183120313210801
:10043800B8002008B70038083006031D252A3708F9
:100448002F06031D282A292A2E2A310884008313FF
:100458008001482A6430A6000030A70037082F0220
:10046800A8003808031C380A3002A9000A128A11A9
:10047800F5220A128A11831203132608B4003108E0
:1004880084003408831380000A30A0000030A100E3
:100498003808A3003708A2000A128A115E230A123C
:1004A8008A11831203132108B6002008B500360804
:1004B8003806031D612A35083706031D642A652A94
:1004C8006A2A3208840083138001842A0A30A6002D
:1004D8000030A70035083702A8003608031C360A82
:1004E8003802A9000A128A11F5220A128A11831207
:1004F80003132608B40032088400340883138000EC
:100508003508B400330884003408800008002D3012
:1005180083120313A9002530A800A80B912AA90B60
:10052800912A962A83120313A101A20101300A120B
:100538008A1102240A128A110D3083120313A900AA
:10054800FB30A800A80BA62AA90BA62A831203131E
:10055800A101A20101300A128A1102240A128A1189
:10056800483083120313A800A80BB82A000083128E
:100578000313A101A20101300A128A1102240A12EE
:100588008A1183120313A101A10AA20101300A12E0
:100598008A1102240A128A1183120313A101A201EB
:1005A80000300A128A1112250A128A110A128A11B7
:1005B8000A260A128A1183120313A10101300A12B2
:1005C8008A117C250A128A1183120313A101A10A38
:1005D800A201A20A01300A128A1112250A128A11EE
:1005E800080083120313AC01A71FFB2AFC2A032B64
:1005F800A609A709A60A0319A70AAC01AC0AA91FEC
:10060800062B072B102BA809A909A80A0319A90A60
:100618000130AA002A08AC06AD01AE01260827045D
:100628000319172B182B4F2BAB01AB0A262B0130C4
:100638000310A60DA70DFF3E031D1C2B0130AA00B9
:100648002A08AB07A71F292B2A2B1B2B01300310C5
:10065800AD0DAE0DFF3E031D2B2B27082902031DF0
:10066800372B26082802031C3A2B3B2B422B260843
:10067800A8022708031CA903A9022D14013003109E
:10068800A70CA60CFF3E031D432B0130AB02031D34
:100698004E2B4F2B2A2B2C080319532B542B592B39
:1006A800AD09AE09AD0A0319AE0A2E08A7002D0838
:1006B800A600080083120313A601A31F642B652B51
:1006C8006C2BA209A309A20A0319A30AA601A60A68
:1006D800A11F6F2B702B752BA009A109A00A031964
:1006E800A10A2008210403197A2B7B2BAA2BA50128
:1006F800A50A892B01300310A00DA10DFF3E031D93
:100708007F2B0130A4002408A507A11F8C2B8D2B5B
:100718007E2B21082302031D932B20082202031C91
:10072800962B972B9D2B2008A2022108031CA303BC
:10073800A30201300310A10CA00CFF3E031D9E2B49
:100748000130A502031DA92BAA2B8D2B26080319FE
:10075800AE2BAF2BB42BA209A309A20A0319A30A33
:100768002308A1002208A0000800831603178801A7
:100778008901831603138501860188018701890190
:100788008312031385018601880187018901A0016D
:10079800A00A04300A128A11D7250A128A110030D9
:1007A8000A128A11BA250A128A1183120313A001A8
:1007B800A00A1930A7002708A10001300A128A11DF
:1007C800ED240A128A1183120313A001A00ADC3057
:1007D800A1000B30A20000300A128A119B250A12D0
:1007E8008A118B170B170A128A11A0260A128A116E
:1007F80083120313EA01E901E801080083120313D5
:10080800A7008813881286012708A3000430031064
:10081800A30DFF3E031D0B2C2108A400023003107A
:10082800A40DFF3E031D132C0310240D2307A50060
:100838002208A60001300310A60DFF3E031D1F2C41
:100848000310260D2507203E86000A128A117B26F2
:100858000A128A11203083120313A300A30B322C2F
:100868000000080083120313A801512C280824074C
:10087800840025080318250AFF000A128A115A2540
:100888000A128A110A128A118A260A128A1101305A
:1008980083120313A6002608A8072808A600A701A4
:1008A8002408A0002508A1000A128A1136250A1278
:1008B8008A118312031327082102031D652C2608B9
:1008C80020020318682C692C3A2C080083120313A1
:1008D800A801852C28082407840025080318250A60
:1008E800FF000A128A115A250A128A110A128A115D
:1008F80036260A128A11013083120313A60026082D
:10090800A8072408A0002508A1000A128A11362584
:100918000A128A11831203132808A600A7012108C6
:100928002702031D992C20082602031C9C2C9D2CB1
:100938006E2C080083120313A200B22C08110514B0
:100948008815C52C081505108815C52C081505141B
:100958008811C52C081505148815C52C2208A00077
:10096800A1012108003A0319BA2CAE2C2008013A3B
:100978000319A22C033A0319A62C013A0319AA2C2D
:10098800AE2C080083120313A401A501201CCD2C52
:10099800CE2CD42C2208A4070318A50A2308A507DF
:1009A80001300310A20DA30DFF3E031DD52C01300D
:1009B8000310A10CA00CFF3E031DDC2C2008210411
:1009C800031DE72CE82CCA2C2508A1002408A00048
:1009D800080083120313A200220C83160313031CBE
:1009E80018110318181583120313200C8316031704
:1009F800031C871103188715831203132108831614
:100A080003139900831203139817831603131812FC
:100A180018139816831203130C1208008312031379
:100A2800A6008813881286012608A3000230031046
:100A3800A30DFF3E031D1B2D2108A4002407230737
:100A4800A50022082507083E86000A128A117B267F
:100A58000A128A11203083120313A300A30B322D2C
:100A680000000800831203132008A2002108A30035
:100A7800432D0130A2070318A30A0030A307230857
:100A8800FF00220884000A128A115A250A128A11C4
:100A9800003A031D502D512D3D2D20082202A000A3
:100AA8002108031C210A2302A1000800FF1B642D52
:100AB80083137F1883170008840A0319FF0A0800A4
:100AC80005308A000408840A82070034533431341C
:100AD8003A34203420342034533432343A342034F5
:100AE8002034533433343A3400342034203400343E
:100AF80083120313A3008813881286012308A20017
:100B080001300310A20DFF3E031D852D2108220789
:100B1800043E86000A128A117B260A128A112030A6
:100B280083120313A200A20B972D00000800831262
:100B38000313A400240C031C90100318901420081D
:100B4800A300A30E10082306CF3923069000101423
:100B58002108A3002308A5002208A3002308A60053
:100B680026088F0025088E000C1008008312031336
:100B7800A0009412831603139417831203131412FC
:100B88008316031314138312031314082006F03971
:100B98002006940083160313071687128711831201
:100BA80003139416080083120313A200200C831663
:100BB8000313031C0F1003180F14831203132208C6
:100BC800A100A10E831603130F0883120313210635
:100BD8008F392106831603138F000800831203132D
:100BE8000C1CF72DF82D032ED801D80ADC30F000A4
:100BF8000B30F1000A128A115C260A128A11760853
:100C08008A00750E8300FE0E7E0E09008312031300
:100C180009108910013086000A128A117B260A12EF
:100C28008A11063083120313A2002F30A100A10BF2
:100C38001B2EA20B1B2E202E080083120313A200CA
:100C4800881388122208803E86000A128A117B26A1
:100C58000A128A11203083120313A100A10B322E2D
:100C68000000080083120313A200881788122208C4
:100C780086000A128A117B260A128A1120308312F2
:100C88000313A100A10B462E0000080083120313D2
:100C9800A1000A128A11A7260A128A1183120313C5
:100CA8001308A0002108840020088313800008008E
:100CB8007008F2007208F3007108F2007208F4007C
:100CC8007408831203138F0073088E000C10080039
:100CD80083120313A00083160313981C742E752E19
:100CE8006F2E831203132008303E990008008312E8
:100CF80003130817C73083120313A000832EA00B19
:100D0800822E862E831203130813080083120313FE
:100D1800A00083160313981C922E932E8D2E8312F7
:100D2800031320089900080064008001840A04065F
:100D3800031900340406992E831603130C14831226
:100D480003130C10080083160313141CAC2EAD2ECD
:100D5800A72E080083120313A000200893000800A0
:04400E00D420FF3F7C
:00000001FF
