:060000000A128A110C280F
:10000800FE00030EF1000A08F2000A128A1198286D
:100018000A128A110F28F60183010A128A11EA28A6
:10002800F50036288316031316145828831603136D
:100038009614582883160313161558288316031385
:100048009615582883160313161658288316031373
:100058009616582883160313161758288316031361
:10006800961758287508F300F4017408003A031924
:100078003E2858287308003A03191628013A03192C
:100088001A28033A03191E28013A03192228073AA5
:1000980003192628013A03192A28033A03192E2896
:1000A800013A0319322858280800831603178801D3
:1000B80089018316031385018601061486158701B5
:1000C800880183120313850187018801860183163D
:1000D8000313811315149515F301F30A04300A125A
:1000E8008A11D9200A128A1100300A128A111420A2
:1000F8000A128A1103300A128A1114200A128A116C
:100108000B100A128A11C2200A128A118B170B17B8
:100118000A128A11FE200A128A110A128A11F7207D
:100128000A128A11F60108000B1C9B289C28AD288E
:10013800831203130618A128A228A4280130F60266
:100148008619A728A828AC280130F0007008F607FF
:100158000B10831203138C1DB228B328BB288316F7
:100168000313141076088312031393008C1172087A
:100178008A00710E8300FE0E7E0E0900831203139F
:1001880094121412831603131413831203131408FE
:10019800F03904389400831603130716871287155D
:1001A80085168312031394160800F500730C831642
:1001B8000313031C0F1003180F147508F400F40E32
:1001C8000F0874068F3974068F0008000A128A1106
:1001D80059200A128A117608831203138800EF281F
:1001E8000A128A110C28831603138C158312031321
:0A01F8008C1108008B150B10080095
:04400E00D420FF3F7C
:00000001FF
